:020000040800F2
:10000000500A0020C1010008C74400083738000822
:10001000C5440008750B0008F54A00080000000000
:10002000000000000000000000000000E946000899
:10003000B10C000800000000C9440008D901000804
:10004000DB010008DB010008DB010008DB01000820
:10005000DB010008DB010008DB010008DB01000810
:10006000DB010008DB010008DB010008DB01000800
:10007000DB010008DB010008DB010008DB010008F0
:10008000DB010008DB010008DB010008DB010008E0
:10009000DB010008DB010008DB010008DB010008D0
:1000A000DB010008DB010008DB010008DB010008C0
:1000B000DB010008DB010008DB010008DB010008B0
:1000C000DB010008DB010008DB010008DB010008A0
:1000D000DB010008CD4A0008DB010008DB01000855
:1000E000DB010008DB010008DB010008DB01000880
:1000F000DB010008DB010008DB010008DB01000870
:10010000DB010008DB010008DB010008DB0100085F
:10011000DB010008DB010008A9470008DB0100083B
:10012000DB010008DB010008DB010008DB0100083F
:10013000DB010008DB010008DB010008DB0100082F
:10014000DB010008DB010008DB010008DB0100081F
:10015000DB010008DB010008DB010008DB0100080F
:10016000DB010008DB010008DB010008DB010008FF
:10017000DB010008DB010008DB01000800000000D3
:10018000DB010008DB010008DB010008DB010008DF
:10019000DB010008DB010008DB010008DB010008CF
:1001A000913F0008DB010008910B0008DFF80CD03C
:1001B00000F0A2F80048004739500008500A00201B
:1001C0000648804706480047FEE7FEE7FEE7FEE7F1
:1001D000FEE7FEE7FEE7FEE7FEE7FEE78D470008E5
:1001E000AD0100082DE9F05F0546002092469B46D0
:1001F00088460646814640241BE02846414647463D
:10020000224600F069F853465A46C01A914110D36D
:1002100011461846224600F050F82D1A67EB0108E7
:100220004F4622460120002100F047F817EB000955
:100230004E41201EA4F10104DFDC484631462A4627
:100240004346BDE8F09F40EA01039B0703D009E065
:1002500008C9121F08C0042AFAD203E011F8013BB2
:1002600000F8013B521EF9D27047D2B201E000F80B
:10027000012B491EFBD270470022F6E710B513464A
:100280000A4604461946FFF7F0FF204610BD30B578
:100290000B46014600202022012409E021FA02F544
:1002A0009D4205D303FA02F5491B04FA02F52844DE
:1002B000151EA2F10102F1DC30BD202A04DB203A38
:1002C00000FA02F1002070479140C2F1200320FAA9
:1002D00003F3194390407047202A04DB203A21FAA7
:1002E00002F00021704721FA02F3D040C2F120024F
:1002F0009140084319467047064C074D06E0E068F8
:1003000040F0010394E8070098471034AC42F6D35C
:10031000FFF750FFCCF80208ECF802087CB5054660
:1003200000F03CF9044600F033F902460020CDE924
:1003300000050748074B006800EB800101EBC00196
:1003400003EB81012346C96D00F038FE7CBD00003F
:1003500018000020540300200A4B30B41B6803EB44
:100360004304094B03EB84039B68DD881C689B886E
:10037000DB1DDB08203A13FB02F205FB024230BC16
:1003800000F0D8BC180000206C040020034840682E
:100390008068002800D00047704700001800002047
:1003A0002DE9F0470446002799468A461546B84687
:1003B000104601E008F1010810F8011B0029F9D1ED
:1003C00000F0E6F8254A264E4B461168B9F1010FB8
:1003D00001EB410106EB810189688988B0FBF1F0EE
:1003E00002D0022B0BD105E0A0EB0800484304EB40
:1003F000500003E0A0EB080000FB014084B29046EF
:1004000000F0C6F80146D8F8000000EB400006EB0B
:1004100080008068808807FB101189B2814213D365
:10042000012012E051462046FFF796FFD8F8000061
:100430007F1C00EB400006EB8000BFB280686D1CA3
:100440008088204484B2DBE700202A780AB10121A9
:1004500000E000210842E5D1BDE8F0871800002047
:100460006C0400207CB514460D46064600F090F85A
:1004700000FB05610C480D4B006800EB800202EBAD
:10048000C00203EB820203F58C73D26D02EB810193
:1004900000EB400253F822200023CDE90032012373
:1004A000224600F08BFD7CBD180000205403002084
:1004B00070B514460D46064600F06AF8074905FB7C
:1004C0000060096801EB810202EBC101044A02EB02
:1004D0008101C96D41F8204070BD00001800002066
:1004E000540300202DE9F0411C4616460D460746F0
:1004F000FFF7B8FF281981B232463846FFF7B2FF3E
:1005000022462946384600F009F8B81922462946FD
:10051000BDE8F04180B200F001B800007CB516469D
:100520000C46054600F034F800FB04500E4D2968D7
:1005300001EB810202EBC1010C4A02EB8101C96DA2
:1005400001EB800400F024F82D68094A05EB450111
:10055000401E52F821103346CDE900010122214608
:10056000284600F02BFD7CBD18000020540300201D
:100570006C04002004480549006800EB400001EBD2
:100580008000806870470000180000206C04002084
:1005900001484068806A0047180000200148406810
:1005A000C06A00471800002070B5214C1F48002584
:1005B0002060092060610120A0611D20E06103200E
:1005C000206240F20D10606240F24310A06240F2DF
:1005D0001710E06240F24710206384F8365084F828
:1005E000345004F1E80084F8355008210160C0213E
:1005F000016104218161C903416201F07DFF6560F1
:10060000A560E560256100F059F8204601F0DCFDA9
:100610000949084848600068804700F005F9064825
:10062000083000F0E7F8002070BD000000680140CD
:1006300054030020640000201800002070B58EB024
:1006400000240E4605460094FFF7A2FFCDE9010401
:10065000FFF7A4FF0996CDE90304FF20CDE90504C7
:100660008DF830408DF831408DF832404FF4C06045
:10067000079007200890FFF78BFF0A90FFF78EFF87
:100680000B902A4669460A4801F0F6FC094905EB39
:10069000450001EB8002631E5360074B93604FF0EF
:1006A0007F4241F82020024801F010FD0EB070BDDD
:1006B000540300206C0400202000002030B5434883
:1006C00087B00021026842F080620260006800F09A
:1006D000806005903D481438026842F400020260D0
:1006E000026802F400020592026842F00102026010
:1006F000026802F001020592026842F00202026002
:10070000026802F002020592026842F004020260EE
:10071000026802F004020592026842F008020260D8
:10072000026802F008020592026842F020020260AC
:10073000026802F020020592026842F04002026064
:10074000006800F04000059041F65800009002203B
:10075000CDE9010103900E20049069461C4801F088
:1007600023F84FF470601B4C00906946204601F05E
:100770001BF84FF4986000906946174801F014F890
:10078000482000906946154801F00EF820150090A9
:100790006946134801F008F84FF40C60114D0090C1
:1007A0006946284601F000F80320009009200490D3
:1007B0006946204600F0F8FF4FF4A05000906946CB
:1007C000284600F0F1FF07B030BD00004438024079
:1007D000000002400004024000080240000C0240F9
:1007E00000140240001802400149086070470000F0
:1007F000180000200449054A096801EB410102EB99
:100800008101886070470000180000206C040020FF
:100810000349044A096801EB410142F8210070478D
:10082000180000206C04002070B51B4819490423EF
:10083000016000F13401022207248B60C1E9002429
:10084000C1E903424A618A611021C0E903314021B4
:10085000416101260024C0E901644FF4C071C0E980
:1008600006149102C0E9081489008162214600F053
:100870005BF809490848343102F020FA074D08B105
:100880002E7000E02C7040F26A5000F009F82878D1
:1008900070BD0000400100A0440500203000002091
:1008A0002DE9F84F1F4C0025012608270095C4E9C3
:1008B0000067C4E9026582464FF6FF7921464A4641
:1008C000A1F1500002F02EFA012000F027FE0220D4
:1008D000C4E90007C4E9026521464A46A1F1500077
:1008E00002F020FA03204FF00408E56084E881015B
:1008F00021464A46A1F1500002F014FA4FF40C7060
:100900000090C4E90260C4E9008721464A46A1F18B
:10091000500002F007FA5146A4F15000BDE8F84F2C
:1009200002F0EFB99405002030B587B005007DD006
:100930004D480024016841F00101016000684A4906
:1009400000F0010008390590086840F48000086054
:10095000086800F480000590086840F00200086014
:10096000086800F002000590086840F00400086084
:10097000086800F004000590086840F0080008606E
:10098000086800F008000590086840F01000086052
:10099000086800F010000590086840F0200008602A
:1009A000086800F020000590086840F040000860EA
:1009B0000868694600F0400005900220CDE9024039
:1009C00001900C20049060200090284800F0ECFE7C
:1009D000012000906946264800F0E6FE4CF20370C4
:1009E00000906946234800F0DFFE4FF683700090C8
:1009F0006946214800F0D8FE4FF63F000090694656
:100A00001E4800F0D1FE48F23310009069461C48A1
:100A100000F0CAFE1B498020C1E901408000C86087
:100A20004000086180004861800000E01AE0C1E9F0
:100A30000604C000C1E908040320C1E90A04124801
:100A40000C630860296308468D6300F0CBFC0D48F9
:100A500000F0FAFC00220F21382001F01BFD3820A5
:100A600001F00AFD07B030BD3838024000040240F2
:100A700000080240000C0240001002400014024036
:100A80000018024084040020106402407CB52A4C07
:100A90000546E0680169822088472880002849D0FF
:100AA000E06801AA6946436982209847BDF80400BE
:100AB0000B21A0F5B47080B2ADF80400B0FBF1F0EA
:100AC00020B16188884201D9491E88B2BDF8001062
:100AD00040F6B832ADF80400914202D8A1F61E717A
:100AE00001E0A1F6D8614942ADF8001089B20F22A9
:100AF000B1FBF2F121B12288914201D9521E91B28B
:100B0000ADF8001062688BB2934201D98A1A00E0F6
:100B1000521A93B2A268904201D9821A00E0121AC6
:100B200092B21A44052A01D9C4E90110A08868804C
:100B30002089A8807CBD00004C00002070B50B4DC2
:100B40000B4C012628806980616882208847A0F5C7
:100B50000061113908D1EC600026216882208847A5
:100B6000E868C16882208847304670BD4C0000208C
:100B70009C000020FEE702EB420001EB800050F8F1
:100B80002300401C01D00020704701207047000066
:100B9000014800F0A9BA0000CC000020F0B50468BC
:100BA000059E656C46EA034305F040451D436564B8
:100BB0000368DA634268B2F5403F02D00068C16062
:100BC000F0BD01F47F4201F47F0C866801F07F43A1
:100BD00001F47F0701F47F45CCB242EA0C02BEB1BA
:100BE000012E16D001F47F02D20CC1F3C401022EF3
:100BF00011D0032E14D0190F3A0D2D0B23092C01FF
:100C000044EA022242EA01321A4300688263F0BDDC
:100C10001A432243F9E7AB0A5B0143EAC22206E02A
:100C2000DB0FEC0A640144EA822242EAC3320A433F
:100C3000EBE7000001681823CAB2103AB2FBF3F2E6
:100C4000054B6FF30901032A9B5CC36500D9091D9D
:100C5000816508467047000014D2020810B50146AD
:100C600000208B698A6A4FF0C07453B1B3F5005FFE
:100C700015D072B1012A0CD0022A0AD0032A09D158
:100C800004E01AB1012A06D0022A03D1C96AC901B7
:100C900000D5012010BDC96AA142FAD010BD002ABA
:100CA000F7D0012AF2D0022AF3D0032AF3D010BDE4
:100CB000704700002DE9F0470027DFF834808A46AE
:100CC00081463D46002405EB0A06361D04EB09006B
:100CD00058F82720001DB1B280B27F1CFFF7E8FB57
:100CE000641C392CF2DB6D1C392DEBDBBDE8F08781
:100CF0002C9F02082DE9F0470026DFF834808A4651
:100D000081463546002405EB0A0700BF58F8262027
:100D100004EB0900B9B280B2761CFFF7C9FB641C72
:100D2000B92CF3DB6D1CB92DECDBBDE8F0870000BE
:100D3000A45500082DE9F74FDFF8A4A00026DAF843
:100D4000000000EB4001274800EB810080688588A7
:100D5000C788E81D834620F00700401B00F0FF090C
:100D60003AE000BF4FEADB010298012901FB0600CF
:100D70000BD002290BD0017842780904807841EA2F
:100D8000022141EA000800241FE0007801E0008809
:100D900040BA8046F7E7291B49440120491E884094
:100DA00010EA080FDAF8000000EB40010D4802D00D
:100DB00050F8212002E000EB810042680098019980
:100DC000204480B2FFF774FB641CAC42E3D301986B
:100DD000401C80B2761C0190BE42C3D3BDE8FE8F9A
:100DE000180000206C04002001230022002183420F
:100DF0000AD1C1EB01101E2101EB8000C2EB0212EF
:100E000001EB8201FFF756BF491C5B1C0329EEDB97
:100E1000521C032AEADB70472DE9F0470027DFF870
:100E200034808A4681463D46002405EB0A06361D7D
:100E300004EB090058F82720001DB1B280B27F1CD6
:100E4000FFF736FB641C392CF2DB6D1C392DEBDB14
:100E5000BDE8F087686C02080A2818D2DFE800F0C5
:100E60001705070A0C0E111315191E2000E05A2051
:100E70001E210CE09620FBE71E2000E05A205A219C
:100E800005E09620FBE71E2000E05A209621FFF7A0
:100E9000C3BF9620FAE730B5D1E901231A43D1E95F
:100EA00003352B431A434B690C681A438B691A4369
:100EB000D1E90735012C496A046807D01A432A434F
:100EC0006FF30E040A43224302600AE024F4F8445C
:100ED0002B4321430B43416803606FF30E010A4328
:100EE0004260002030BD426942EA41014161002078
:100EF0007047F8B514460546D1E9000210438A68E8
:100F00006FF01F03C96803EB421242EA4121084314
:100F10000090286100F038FD064609E0601C07D00B
:100F200024B100F031FD801BA04201D90320F8BD9F
:100F3000A8698006F2D40020F8BD0000F0B56FF07B
:100F40000F05D1E9003405EB04145B1E23432E0189
:100F50008C682F0306EB042423434FEA054C0C8ACC
:100F60008E8ACD68097E4FF07F4E07EB04440CEB70
:100F700006560EEB0161012A0CD082683F1107EB87
:100F800005352B432343334302F070420B43134395
:100F900083600FE08768084A17402A03A2F5805251
:100FA0003243C5683A43234305F070450B432B4356
:100FB0008260C3600020F0BDFF0F0FFF2DE9F843F2
:100FC0000E460746DDE90818124815464FF4403230
:100FD00042600022C0E902210F491C46016000F076
:100FE00012F9002814D139460A4800F02BF80028DD
:100FF0000ED12B46324641460648009400F0D8F9FF
:10100000002805D1BDE8F8430A21024800F048B99C
:10101000BDE8F883FC03002000B0024010B50124B5
:10102000002300228C4202D1C0E9003210BD521CC4
:10103000641C032AF6DB5B1C032BF2DBC0E90056C1
:1010400010BD704770B590F83820012A24D00126D1
:1010500080F83860022280F8392000EB0112148CED
:10106000D369183243EA04451E4C0A2B16D0092BCB
:1010700014D0137B45EA03630029016813D0CD69BE
:10108000A5431D43CD6103681168196151680A29A0
:101090001BD0092919D01DE0022070BDD36803F0D0
:1010A0007F432B43E8E74D6AA5431D434D62036828
:1010B0001168996151680A2901D009290AD1D168BA
:1010C000026821F07F41916204E0D168026821F05A
:1010D0007F41116280F83960002180F8381008469D
:1010E00070BD00000F0003FF2DE9F04704460068C3
:1010F00046680568F1074FF004084FF000074FF00D
:10110000010914D0E90512D5016821F4807101604C
:10111000E06B40F00100E0632168C1F8089084F8BA
:10112000398084F83870616909B120468847B00673
:1011300015D5A80413D52068016821F40051016079
:10114000216820208860E06B40F00200E06384F8B2
:10115000398084F83870616909B1204688473007C2
:1011600015D5280513D52068016821F400610160B8
:10117000216808208860E06B40F00400E06384F898
:10118000398084F83870616909B120468847700752
:101190000CD568050AD52068016821F480610160DA
:1011A0002168C1F80880204600F05AF8B00713D52E
:1011B000A80511D52068016821F40071016021683B
:1011C00002208860E06BE06384F8399084F838701E
:1011D000216909B120468847F00612D5E80410D5E8
:1011E0002068016821F48051016021681020886026
:1011F000E06BE06384F8399084F838702046FFF79C
:1012000020FFBDE8F08770B5040004D094F83900E1
:10121000002510B106E0012070BD84F8385020464A
:1012200000F020F8022084F8390020680168626824
:1012300021F44031114301602068416BA26821F024
:101240000701114341632068016CE2686FF30D01EF
:1012500011430164E563012084F83900002070BD6A
:101260007047000008B500680B49884212D10B484E
:10127000016841F4000101600068002200F40000F0
:10128000009011465A2001F005F9BDE808405A20A7
:1012900001F0F2B808BD000000B002403038024052
:1012A0002DE9F84300260446009600680D460068C4
:1012B0004FF00407C0074FF0030825D000F064FB8F
:1012C00081461DE04068009010F0210F0FD000987B
:1012D000800603D5E06B40F00200E0630098C00791
:1012E00003D0E06B40F00100E063212034E0681C93
:1012F00006D000F049FBA0EB0900A8424DD8A5B3E9
:10130000206841688907DDD52068C169406A01F01D
:10131000200100F02000084335D000F035FB814665
:101320002DE04068009010F0290F1FD000980007B2
:1013300003D5E06B40F00400E0630098800603D51D
:10134000E06B40F00200E0630098C00703D0E06B60
:1013500040F00100E06329202168886084F839703A
:1013600084F838600120BDE8F88316E0681C06D0D8
:1013700000F00AFBA0EB0900A8420ED86DB120686E
:101380004168C906CDD5216812208860012084F803
:10139000390084F838600020E5E754F83C0F40F04D
:1013A000200044F8040984F8018026700320DAE75D
:1013B00038B50446049894F83850012D10D0012512
:1013C00084F83850022584F8395000902046FFF701
:1013D000E5FB2068016841F001010160002038BD93
:1013E000022038BD70B504002BD094F835000228D7
:1013F00026D02068016821F00101016020680025E5
:10140000056020684560206885602068C5602068A8
:1014100005612168212048612046FFF70BFCE56348
:1014200025646564A564E564256594F85C203F2126
:1014300091408160656584F8355084F8345000200F
:1014400070BD012070BD00002DE9F041044600F0A0
:101450009BFA06465CB1002584F83450022084F8DB
:1014600035002068016821F0010101600DE00120D4
:10147000BDE8F08100F088FA801B052805D92020FE
:101480006065032084F83500F2E720680068C00733
:10149000F0D12268116820480140D4E901031843C3
:1014A000D4E903363343184363691843A3691843E7
:1014B000E3691843236A18430843616A042903D186
:1014C000D4E90B1319430843106020684069666A29
:1014D00020F0070130460E43012704280CD1A06AF2
:1014E0000643E06A40B12046FFF7B8FB20B1402038
:1014F000606584F83570BAE7206846612046FFF7DA
:1015000099FB94F85C203F2191408160656584F8E7
:1015100035700020ACE700003F8010F070B5044645
:1015200000F032FA0546601C02D0044800780444FA
:1015300000F02AFA401BA042FAD370BD0800002038
:101540002DE9F04186B014216846FEF795FE2B4840
:10155000016800294FD14FF00108C0F800802848E9
:101560000024016841F0010101600068022500F0DB
:10157000010005904FF63F00CDE9000502AA0326C1
:101580000C2782E8D00069461E4800F00DF902AA37
:10159000694682E8D000CDE900851B4800F004F9D7
:1015A00048F23310CDE9000502AA694682E8D0006E
:1015B000164800F0F9F84FF68370CDE9000502AA4D
:1015C000694682E8D000124800F0EEF84CF2037051
:1015D000CDE9000502AA694682E8D0000D4800F076
:1015E000E3F86020CDE9000502AA694682E8D00050
:1015F000094800F0D9F806B0BDE8F08100000020ED
:10160000383802400014024000080240001802402E
:1016100000100240000C0240000402402DE9F04F8F
:101620000022DFF854B101264FF00F0906FA02F448
:1016300001EA0403A3427DD122F003075F44D7F8F7
:1016400008C895074FEA157809FA08FA0AEA0C055E
:10165000DFF828C1604502D14FF0000C40E0DFF810
:1016600020C1604502D14FF0010C39E0DFF814C110
:10167000604502D14FF0020C32E0DFF80CC160454A
:1016800002D14FF0030C2BE0DFF800C1604502D11E
:101690004FF0040C24E0DFF8F8C0604502D14FF0B1
:1016A000050C1DE0DFF8ECC0604502D14FF0060CE0
:1016B00016E0DFF8E4C0604502D14FF0070C0FE000
:1016C000DFF8D8C0604502D14FF0080C08E0DFF821
:1016D000D0C0604502D14FF0090C01E04FF00A0C78
:1016E0000CFA08FCAC4522D12E4DD5F800C02CEAEE
:1016F000030CC5F800C005F1040CDCF800509D4354
:10170000CCF800500CF10405D5F800C02CEA030C0D
:10171000C5F800C02D1DD5F800C02CEA030CC5F893
:1017200000C0D7F8085825EA0A05C7F80858056820
:10173000570000E01AE00323BB409D430560D50835
:1017400000EB8505D5F820C057074FEAD76809FA9E
:1017500008F72CEA070CC5F820C0C5689D43C56092
:101760004568A543456084689C438460521C102AE8
:10177000FFF45CAFBDE8F08F003001400000024094
:101780000004024000080240000C02400010024029
:101790000014024000180240001C024000200240D9
:1017A00000240240003C01402DE9F84F00224FF098
:1017B000010803254FF00F0E0B6808FA02F42340CE
:1017C000A3426ED14E68012E05D0022E03D0112EF9
:1017D00001D0122E12D186684FEA420C05FA0CF79E
:1017E000BE43CF6807FA0CF7374387604668A643C5
:1017F0000C79C4F30014944034434460C668570025
:1018000005FA07FC8C6826EA0C06BC403443C46029
:101810004C68022C01D0122C13D1D40800EB8404A4
:10182000A346D4F8209054074FEAD46A0EFA0AF679
:1018300029EA06090E6906FA0AF646EA0906CBF80D
:10184000206004680E7924EA0C0406F00306BE400A
:10185000264306604C68E4006FD53B4C266846F48E
:1018600080462660246822F0030604F48044009435
:10187000364C3444A446D4F808489607360F0EFA7E
:1018800006F7BC43324FB84201D100272EE0314F5A
:10189000B84201D1012729E02F4FB84202D10227D7
:1018A00024E04AE02D4FB84201D103271EE02C4F1F
:1018B000B84201D1042719E02A4FB84201D10527C7
:1018C00014E0294FB84201D106270FE0274FB84254
:1018D00001D107270AE0264FB84201D1082705E0C9
:1018E000244FB84201D1092700E00A27B740274317
:1018F000CCF80878204E34684F689C43FF0300D52D
:101900001C4334601C4E361D34684F689C43BF0333
:1019100000D51C433460184E083634684F689C4329
:10192000FF0200D51C433460134E0C3634684F68F8
:101930009C43BF0200D51C433460521C102AFFF4A4
:101940003BAFBDE8F88F0000443802400030014052
:10195000000002400004024000080240000C024067
:10196000001002400014024000180240001C024017
:101970000020024000240240003C01400AB1816185
:1019800070470904FBE700000148806870470000C9
:101990000800002090F83D20202A01D00220704746
:1019A000242280F83D200268136823F001031360AD
:1019B0000268536A23F0100353620268536A0B43B0
:1019C000536201680A6842F001020A60202180F82F
:1019D0003D100020704790F83D20202A01D00220C1
:1019E0007047242280F83D200268136823F0010329
:1019F000136003685A6A22F00F020A4391B25962D7
:101A000001680A6842F001020A60202180F83D1056
:101A10000020704710B5040013D0242084F83D0046
:101A20002068016821F001010160204600F066FA9B
:101A30000020206484F83D0044F8300FA073207328
:101A400010BD012010BD90F83D00704770B5040036
:101A500025D094F83D00002520B984F83C5020465C
:101A600000F06AFA242084F83D002068016821F023
:101A7000010101602068016841F4004101602068B3
:101A8000016821F40041016000F01AFF4D4A6168CD
:101A9000914201D84C4900E04C49884201D20120D2
:101AA00070BD4B492368B0FBF1F15E6826F03F063C
:101AB0000E435E606368934206D94FF496735943B0
:101AC0004FF47A73B1FBF3F12368491C1E6A26F0C8
:101AD0003F06314319626168914210D84900401EA7
:101AE000B0FBF1F2521CC2F30B02042A01D2042013
:101AF00022E0B0FBF1F0401CC0F30B001CE0A26838
:101B0000F2B301EBC10303EB0116431EB3FBF6F383
:101B10005B1C43F480431B0549D092B301EBC10227
:101B200002EB0111401EB0FBF1F0401CC0F30B00B2
:101B300040F4804040F400402168CA694CF6FF73CD
:101B40009A431043C861D4E9071001432068026832
:101B500022F0C00211430160D4E90301014320686F
:101B6000826848F2FF339A4311438160D4E905014A
:101B700008432168CA6822F0FF021043C86001E0F0
:101B80000EE016E02068016841F001010160256463
:101B9000202084F83D00256384F83E50002070BD6D
:101BA00001EB4106431EB3FBF6F35B1CB3E70120D8
:101BB000C2E701EB4101401EB0FBF1F0401CC0F355
:101BC0000B00B7E7A086010080841E0000093D00DD
:101BD00040420F002DE9FF4F83B09A46DDE911978F
:101BE00093460446DDF84080FFF7CEFE054694F8A4
:101BF0003D00202870D1192301227149204600950B
:101C000001F02AFF0028F5D194F83C00012863D0A8
:101C1000012084F83C0020680168C90703D10168ED
:101C200041F0010101602068016821F40061016058
:101C3000222084F83D00402084F83E0000262664DF
:101C4000C4F82480A4F82A90608D20855D48E06265
:101C5000CDE9007553465A462046049901F004FE2A
:101C600000287CD1208DD0B1012821D00228206805
:101C700024D0416980690090208D032869D801280B
:101C80002BD0514902283B464FF00002009559D015
:101C90008846204601F0E0FE002860D13CE0206844
:101CA000416981690091016841F40071016077E048
:101CB0002068016821F480610160F0E7016821F487
:101CC000806101602068016841F400610160206862
:101CD00041698069009063E06FE02A4639462046FA
:101CE00001F039FF98BB20680069616A08704EE016
:101CF0002068016841F40071016020680069616A30
:101D00000870606A401C6062218D491E2185618DCA
:101D1000491E6185216838E02068016821F48061EE
:101D2000016020680069616A0870606A401C606236
:101D3000208D401E2085608D401E60853B46002220
:101D400041460095204601F087FE00B9D0E706E045
:101D5000FFE72A463946204601F0FDFE18B1012072
:101D600007B0BDE8F08F20680069616A0870606A9A
:101D7000401C6062218D491E2185618D491E61854F
:101D800021684A69D24352070AD409690170606A1E
:101D9000401C6062208D401E2085608D401E608545
:101DA000208D00287FF468AF202084F83D0084F85F
:101DB0003E6084F83C600020D2E70220D0E70000BB
:101DC000020010000000FFFF040001002DE9FF4F9A
:101DD00083B09A46DDE9119793460446DDF84080CA
:101DE000FFF7D2FD054694F83D0020287FD1192346
:101DF000012240492046009501F02EFE002876D1B0
:101E000094F83C00012872D0012084F83C0020683E
:101E10000168C90703D1016841F001010160206830
:101E2000016821F400610160212084F83D00402018
:101E300084F83E0000262664C4F82480A4F82A9082
:101E4000608D20852C48E062CDE9007553465A46E6
:101E50002046049901F086FD70B930E02A463946E3
:101E6000204601F0ABFE58B1206C042804D1206854
:101E7000016841F400710160012007B0BDE8F08FF6
:101E8000606A216800780861606A401C6062218D88
:101E9000491E89B22185628D521E6285226853696E
:101EA000DB435B070BD469B100781061606A401CAA
:101EB0006062208D401E2085608D401E6085208DD3
:101EC0000028CBD12A463946204601F09FFD002844
:101ED000CAD154F83D0B016841F400710160202023
:101EE00004F81E09E67766770020C6E7FFE70220C0
:101EF000C3E70000020010000000FFFF10B50068FB
:101F0000094988420FD10948016821F400010160A4
:101F100041150748FFF782FBBDE810404FF4807180
:101F20000448FFF77BBB10BD005C00404038024016
:101F30000008024000000240F0B587B004461421BA
:101F40006846FEF799F91A49206888422DD1194848
:101F5000016841F004010160016801F0040105918C
:101F6000016841F0010101600068122400F00100E5
:101F700005904FF400700125032604278DE8F10039
:101F800069460D48FFF710FC28028DE8F10069460C
:101F90000A48FFF709FC07481030016841F40001C6
:101FA0000160006800F40000059007B0F0BD00007B
:101FB000005C00403038024000080240000002404F
:101FC000024881680278114481607047080000204F
:101FD0000B4810B5016841F400710160016841F4DB
:101FE00080610160016841F480710160032000F0AC
:101FF00071FA002000F006F800F026FA002010BD6B
:10200000003C024010B5014688B00022362000F0A6
:1020100041FA362000F030FA13480024016841F0FC
:1020200010010160006805A900F0100006906846E4
:1020300000F026FC00F044FC0C494000B0FBF1F13C
:102040000C480B4A491E026040F2E732C0E9032403
:10205000C0E9011401F0B6F910B1012008B010BDBB
:10206000044801F0DFF9F9E74038024040420F0030
:1020700000100040140300202DE9F041044690F8C0
:10208000A00016460F4601281DD0012584F8A05057
:10209000022084F8A10006EB860000EBC60004EBEA
:1020A000800034223830FEF7CEF8324639462046DA
:1020B00001F074FF2068456284F8A150002084F884
:1020C000A000BDE8F0810220FBE7000090F8A0101E
:1020D00001290ED0012100F8A01F02224270064AF9
:1020E000136843F480331360417000210170084687
:1020F00070470220704700001868014070472DE9C2
:10210000F04104460068856B466B69074FF0040890
:102110004FF0000715D5710713D5416B21F004016D
:1021200041632168C1F83C80D4F8A41041F001015A
:10213000C4F8A41084F8A18084F8A0702046FFF7AA
:10214000DDFFA80716D5B00714D52068416B21F034
:102150000201416321680220C863D4F8A40040F062
:102160000200C4F8A40084F8A18084F8A07020467E
:10217000FFF7C4FF05EA0600C0074FF001080ED0C4
:102180002068416B21F0010141632168C1F83C8066
:1021900084F8A18084F8A070204600F08FF828070A
:1021A00010D530070ED52068416B21F0080141633E
:1021B00021680820C86384F8A18084F8A0702046B4
:1021C00000F040F9BDE8F08170B5040004D094F847
:1021D000A100002510B106E0012070BD84F8A050D8
:1021E000204600F06DF8022084F8A1002068816983
:1021F00021F070418161D4E901010843D4E903125F
:102200001143084321688A691043886121688A68FC
:10221000294802408A60A18A0A0421688B68A6695D
:10222000334313438B602168CA680240CA60A18BA4
:102230000B042168CA68266A32431A43CA602168BF
:102240000A6902400A61A18C22680B041169A66A1E
:1022500031431943116121684A6902404A61A08DE6
:10226000010420684269236B1A430A43426194F8CF
:1022700035002168020294F83600CB6A03F07F43F0
:10228000CB622168CB6A94F8346042EA0040334361
:102290000343CB622068416B41F006014163206833
:1022A000816941F001018161C4F8A450012084F8E2
:1022B000A100002070BD000000F800F07047000091
:1022C0002DE9F04186B0044614216846FDF7D4FF9D
:1022D0005449206888427CD153480024016841F069
:1022E00080610160006800F0806005904E481438FD
:1022F000016841F020010160016801F020010591B1
:10230000016841F001010160016801F001010591DE
:10231000016841F002010160016801F002010591CC
:10232000016841F040010160016801F04001059140
:10233000016841F004010160016801F004010591A8
:10234000016841F0080101600068022500F0080002
:1023500005904FF480600090CDE901540E26CDE940
:10236000034669463148FFF71FFA41F658000090CE
:10237000CDE90154CDE9034669462D48FFF714FA2B
:1023800003200090CDE901540927DFF8A880CDE9AA
:10239000034769464046FFF707FA4FF47060009024
:1023A000CDE90154CDE9034669464046FFF7FCF903
:1023B0004FF40C600090CDE90154DFF87C80CDE94A
:1023C000034669464046FFF7EFF94FF498600090E6
:1023D00000E024E0CDE90154CDE903466946174801
:1023E000FFF7E2F948200090CDE90154CDE903461A
:1023F00069461348FFF7D8F94FF4A0500090CDE993
:102400000154CDE9034769464046FFF7CDF9002264
:102410001146582000F03EF8582000F02DF806B084
:10242000BDE8F081006801404438024000140240D9
:102430000000024000040240001802400008024070
:10244000000C0240704700000A4808B5016841F4DA
:1024500080410160006800F4804000900548001F42
:10246000016841F080510160006800F080500090E8
:1024700008BD000044380240002809DB00F01F02BC
:10248000012191404009800000F1E020C0F80011D6
:1024900070470000F0B40E4B1B680C46C3F30223D8
:1024A000C3F10705042D00D90425191D072901D200
:1024B000002300E0DB1E012606FA05F1491E21403B
:1024C00099409E40761E16403143F0BC02F038BB66
:1024D0000CED00E0064900F0070208684FF6FF0324
:1024E000184040EA0220034A104308607047000089
:1024F0000CED00E00000FA052DE9F84F04460068F5
:10250000DFF824A2894F8A4DC1074FF001084FF030
:10251000000603D1810701D4400648D5CAF8686097
:10252000FFF732FA814605E0FFF72EFAA0EB09002B
:1025300002287DD828680001F6D42078C1077D489C
:1025400005D06168227A890141EA0271016021782F
:10255000890711D501686268237B9201C1F302717A
:1025600042EA036242EA017101603968E26921F0DE
:102570001F01521E114339602178490608D5616850
:10258000227B890141EA0261227A41EA02710160FB
:10259000CAF86880FFF7F8F9814605E0FFF7F4F91B
:1025A000A0EB0900022843D828680001F6D520686E
:1025B000410701D400074ED5CAF87060FFF7E4F96F
:1025C000814605E0FFF7E0F9A0EB090002282FD8CB
:1025D0002868C0438000F5D520784107564814D5B7
:1025E00001682269237D9201C1F3027142EA03620C
:1025F00042EA017101603968226A6FF0FF0321F439
:10260000F85103EB0222114339602178090712D5F2
:1026100001682269C1F30361920142EA0161227EED
:1026200041EA027101603868616A20F4403000E0DC
:1026300051E008433860CAF87080FFF7A5F90746F3
:1026400005E000BFFFF7A0F9C01B022843D82868A7
:10265000C0438000F6D42078800653D534484030FB
:10266000016841F0805101600068344D00F08050F5
:102670000090286840F480702860FFF785F90746CD
:1026800005E000BFFFF780F9C01B022823D82868A7
:10269000C005F7D5274D143D286810F4407020D0B0
:1026A000218D01F4407181421BD0286820F44071D3
:1026B0002348C0F80080066029602868C00710D051
:1026C000FFF762F9064641F2883707E0FFF75CF949
:1026D000801BB84202D90320BDE8F88F2868800724
:1026E000F4D5A16A1248C1F301220830032A13D09D
:1026F000016821F4F81101602868218DC1F30B01F4
:10270000084328602078C00604D50E4994F82C00B0
:10271000C1F8E0010020DFE702680B4B22F4F81259
:1027200019400A430260E7E7000047428C38024044
:10273000003802408438024088380240007000406F
:10274000400E474200104742FFFCFF0F2DE9F047C3
:102750000E46050065D0DFF81481D8F80000F7B206
:1027600000F00F00B04207D288F80070D8F80000DF
:1027700000F00F00B04254D128683D4C810712D5BB
:10278000400703D5206840F4E05020602878000717
:1027900003D5206840F4604020602068A96820F0DC
:1027A000F000084320602878C0072DD030496868C1
:1027B0000839012812D0022813D0032811D0096843
:1027C000890700292DDA216821F0030101432160E6
:1027D000FFF7DAF8814641F2883A0EE0096889038A
:1027E000EFE709688901ECE7FFF7CEF8A0EB0901F4
:1027F000514502D90320BDE8F0872068696800F0E0
:102800000C00B0EB810FEFD1D8F80010404601F07A
:102810000F01B14207D90770006800F00F00B04205
:1028200001D00120E7E72878400705D52068E9684E
:1028300020F4E050084320602878000706D520687F
:10284000296920F4604040EAC100206000F058F897
:102850002168084AC1F30311515CC8400649086069
:1028600006480068FFF7CEFB0020C4E7003C0240AA
:10287000083802401CD20208140000200C0000207E
:102880000F2202600C4A136803F0030343601368CD
:1028900003F0F0038360136803F4E053C36012682D
:1028A0004FF4E05303EAD20202610448006800F0EA
:1028B0000F0008607047000008380240003C0240EA
:1028C0000448054900680968044AC1F38221515C43
:1028D000C840704714000020083802402CD202087B
:1028E0000448054900680968044AC1F34231515C53
:1028F000C840704714000020083802402CD202085B
:10290000154810B5006810F00C02144813D041109F
:10291000042A0FD0082A0ED10F4C241F22682368E6
:1029200002F03F025B0207D52068C0F38810A0FBCD
:10293000010106E0084610BD2168C1F38811A1FB22
:1029400000010023FDF74EFC2168C1F30141491C41
:102950004900B0FBF1F010BD083802400024F4003B
:102960002DE9F84F04006ED02078DFF83C93C007C3
:10297000A9F104054AD009F104000168C1F38101FD
:10298000012908D00068C0F3810002280AD1D9F8D3
:102990000000400206D52868800337D5606800280B
:1029A000E1D033E06068B0F5803F10D0B0F5A02FE3
:1029B000286810D020F480302860286820F4802017
:1029C00028606068A8B1FEF7DFFF06460DE02868C2
:1029D00040F48030F4E740F480202860F7E700BF3F
:1029E000FEF7D2FF801B642873D828688003F7D5D0
:1029F0000CE0FEF7C9FF064605E000BFFEF7C4FF86
:102A0000801B6428F0D828688003F7D42078DFF88A
:102A10009C8280074FF0000A3ED5A348001D016844
:102A200011F00C0F08D00068C0F3810002280BD110
:102A3000D9F80000400207D42868800716D5E0685E
:102A4000012800D112E02BE1E068B8B10120C8F8FC
:102A50000000FEF799FF064605E000BFFEF794FF71
:102A6000801B0228C0D828688007F7D5286821690C
:102A700020F0F80040EAC10028600DE0C8F800A08E
:102A8000FEF782FF064604E0FEF77EFF801B022869
:102A90001FD828688007F7D42078000722D5824EF7
:102AA00083486169703671B101210160FEF76CFFE6
:102AB000074604E0FEF768FFC01B022809D830680B
:102AC0008007F7D50EE0C0F800A0FEF75DFF0746CF
:102AD00005E082E0FEF758FFC01B02287DD8306871
:102AE0008007F7D42078400768D5DFF8BCB100270D
:102AF0000BF13C0BDBF80000C0000BD4DBF800103E
:102B000041F08051CBF80010DBF80000012700F005
:102B100080500090674E3068C00510D4306840F493
:102B200080703060FEF730FF009005E0FEF72CFF6C
:102B30000099401A022850D83068C005F6D55A4E80
:102B4000A0686C3601280FD00528306810D020F01E
:102B500001003060306820F004003060A068B8B137
:102B6000FEF712FF00900FE0306840F00100F4E73C
:102B700040F004003060F7E7FEF706FF0099411AC5
:102B800041F28830814266D830688007F4D50EE083
:102B9000FEF7FAFE009007E0FEF7F6FE0099411AF4
:102BA00041F28830814256D830688007F4D42FB182
:102BB000DBF8001021F08051CBF80010A069C8B3F9
:102BC0003949091D0968C1F3810102294AD0022847
:102BD000504607D0C8F8600000E03CE0FEF7D4FEA5
:102BE00004463BE04746C8F86000FEF7CDFE0646C7
:102BF00005E000BFFEF7C8FE801B02282BD828681E
:102C00008001F7D4D4E907010843A16A2A4A490898
:102C100002EB0141626A41EA8211084394F82C10E8
:102C200040EA0161C9F8001001203866FEF7ACFEE9
:102C3000044606E036E000BFFEF7A6FE001B0228B1
:102C400009D828688001F7D52CE000BFFEF79CFE6C
:102C5000001B022802D90320BDE8F88F28688001F4
:102C6000F4D41FE00128F7D0D9F80000E26900F49D
:102C70008001914214D1226A00F03F0191420FD1AC
:102C800047F6C071626A0140914209D1A26A00F41C
:102C90004031914204D1E16A00F07060884201D075
:102CA0000120D9E70020D7E704380240000047425E
:102CB000800E4742007000400000FFFF70B50D46D7
:102CC000040003D094F82C0010B107E0012070BD7F
:102CD000002084F82D00204600F011F8022084F82E
:102CE0002C00211D2068FEF7D6F8D4E90002294601
:102CF000FEF724F9012084F82C00002070BDFEF7B7
:102D00001FBC10B5044690F82C00022809D0022000
:102D100084F82C002068FEF7E6F8012084F82C00E7
:102D2000002010BD70B5044690F82C000D46022816
:102D30000DD0022084F82C002068FEF7DAF828680D
:102D4000022805D05FF0010084F82C00002070BD3F
:102D50000520F9E710B5040011D0022084F85100D5
:102D60002068016821F040010160204600F04CF825
:102D70000020606584F8510084F8500010BD0120E7
:102D800010BD90F85100704770B5040005D00025C3
:102D9000A56294F8510010B106E0012070BD84F8DE
:102DA0005050204600F046F8022084F85100206878
:102DB000016821F040010160D4E901010843D4E930
:102DC00003121143084361690843218B01F4007128
:102DD0000843E1690843216A0843A16A084321685E
:102DE0000860A069042101EA1040616A0843216873
:102DF00048602068C16921F40061C16165650120F6
:102E000084F85100002070BD00680749884209D14C
:102E10000648016821F4801101604FF46071044894
:102E2000FEF7FCBB704700000050014044380240F0
:102E30000014024010B586B0044614216846FDF720
:102E40001BFA14492068884221D1134800210268E6
:102E500042F480120260006800F4801005900E4871
:102E60001438026842F020020260006800F020007E
:102E700005904FF4607000900220CDE9010103201D
:102E800003900520049069460448FEF78DFC06B0C7
:102E900010BD0000005001404438024000140240C0
:102EA0002DE9F84F044640680025984616460F461F
:102EB0004FF0040BB0F5827F01D1A06888B194F87F
:102EC0005000012818D0012084F85000FEF75CFD66
:102ED000814694F851004FF0000A01280ED00225D7
:102EE0007DE084F851B013460A462046CDF80080B4
:102EF00000F02CF9BDE8F88F0220FBE7002F6DD021
:102F0000002E6BD084F851B0C4F854A0A763A687F4
:102F1000E687C4F830A0A4F834A0A4F836A0C4F81A
:102F200040A0C4F844A0A068B0F5004F04D12068C8
:102F3000016821F48041016020680168490603D4DA
:102F4000016841F040010160E068D8B139E02068D3
:102F50008168C90709D0007BA16B0870A06B401C79
:102F6000A063E08F401EE0870CE0FEF70DFDA0EBB4
:102F70000901414503D3B8F1FF3F03D036E0B8F172
:102F8000000F33D0E08F0028E1D11DE02068816878
:102F9000C90709D0C068A16B0880A06B801CA06322
:102FA000E08F401EE0870CE0FEF7EEFCA0EB09018D
:102FB000414503D3B8F1FF3F03D017E0B8F1000F4C
:102FC00014D0E08F0028E1D14A464146204601F066
:102FD0007CFA08B120206065606D00B101250120F8
:102FE00084F8510084F850A0284683E70325F6E7CB
:102FF0002DE9F84F044690F8500000271D4616466C
:10300000894601280DD04FF0010B84F850B0FEF72F
:10301000BBFC804694F85100BA46012804D0022730
:103020008EE00220BDE8F88FB9F1000F7DD0002EB0
:103030007BD0032084F85100C4F854A0C4F8309029
:10304000A686E686C4F838A0A4F83CA0A4F83EA062
:10305000C4F844A0C4F840A0A068B0F5004F04D163
:103060002068016841F480410160206801684906D8
:1030700003D4016841F040010160E068B0F5006FE1
:10308000606803D030B3012E24D040E008B1012E97
:103090001CD1206B21680088C86006E02068816828
:1030A000890709D5216B0988C160206B801C2063CA
:1030B000E08E401EE08609E0FEF766FCA0EB08000B
:1030C000A84202D3681C01D031E07DB3E08E002815
:1030D000E4D11FE0206B21680078087306E02068C7
:1030E0008168890709D5216B09780173206B401C21
:1030F0002063E08E401EE08609E0FEF745FCA0EB71
:103100000800A84202D3681C01D010E075B1E08E1F
:103110000028E4D142462946204601F005FA08B1CC
:1031200020206065A06820B107E008E0FFE70327E2
:1031300006E02068C16880680090606D00B10127DA
:1031400084F851B084F850A038466BE72DE9F84F69
:10315000044690F8500000270A9E1D4692468B4672
:103160004FF0010901280ED0012084F85000FEF72D
:103170000BFC804694F85100616801280CD0B1F531
:10318000827F07D102E00220BDE8F88FA16809B96B
:10319000042801D00227C2E0BBF1000F27D0BAF10A
:1031A000000F24D01DB394F85100042802D005204C
:1031B00084F8510000206065C4F838A0E587A58731
:1031C000C4F830B0E586A586206460642068016894
:1031D000490603D4016841F040010160E068B0F5A0
:1031E000006F606805D0E8B3012D46D07FE001276D
:1031F00095E008B1012D39D1206B21680088C860A5
:10320000206B801C2063E08E401EE0862EE020684C
:10321000816889070FD5E18E69B1B9F1010F0AD133
:10322000216B0988C160206B801C2063E08E401EEA
:10323000E0864FF0000920688168C9070CD0E18F53
:1032400051B1C068A16B0880A06B801CA063E08FA7
:10325000401EE0874FF00109FEF796FBA0EB080047
:10326000B04200E009E001D3701C50D1E08E00288C
:10327000CDD1E08F0028CAD13FE0206B21680078D3
:103280000873206B401C2063E08E401EE0862EE019
:103290002068816889070FD5E18E69B1B9F1010F06
:1032A0000AD1216B09780173206B401C2063E08EEA
:1032B000401EE0864FF0000920688168C9070CD0E5
:1032C000E18F51B1C068A16B0870A06B401CA06376
:1032D000E08F401EE0874FF00109FEF755FBA0EBA1
:1032E0000800B04202D3701C01D010E07EB1E08E25
:1032F0000028CDD1E08F0028CAD142463146204671
:1033000001F012F928B101272020606507E00327AA
:1033100005E0A06818B92068C168806800900120A5
:1033200084F85100002084F8500038462CE770479C
:103330007047000070B590F83C20012A32D001247B
:1033400080F83C40022280F83D2003685A689D685E
:1033500022F070060A6832435A60134B02689A42A0
:1033600014D0B2F1804F11D0104B9A420ED0104BB6
:103370009A420BD00F4B9A4208D00F4B9A4205D07D
:103380000E4B9A4202D00E4B9A4204D1496825F066
:1033900080031943916080F83D40002180F83C1083
:1033A000084670BD022070BD0000014000040040CE
:1033B00000080040000C00400004014000400140B3
:1033C0000018004010B5040003D094F83D0010B17F
:1033D00007E0012010BD002084F83C00204600F0EA
:1033E0000DF8022084F83D00211D206801F0E2F96B
:1033F000012084F83D00002010BD000008B50068E1
:103400000649884208D10648016841F0010101607F
:10341000006800F00100009008BD000000000140BD
:10342000443802400168CA6842F00102CA6000687C
:10343000816801F00701062903D0016841F001010C
:1034400001600020704770B5044690F83C000128E8
:1034500017D0012584F83C50022084F83D002068F4
:10346000826822F0770222F47F4282600868502846
:1034700030D00DDC20284DD005DC98B310283BD18E
:1034800048E0022070BD302844D0402834D139E0D3
:10349000602828D0702806D0B0F5805F2CD0B0F519
:1034A000005F29D10AE0CB68D1E90121206801F051
:1034B000E5F92068816841F0770109E0CB68D1E93E
:1034C0000121206801F0DAF92068816841F4804127
:1034D000816011E0CA684968206801F0E1F9502173
:1034E000206807E016E0CA684968206801F0E9F939
:1034F0006021206801F0CCF984F83D50002084F868
:103500003C0070BDCA684968206801F0C9F94021D3
:103510002068EFE7226801461046EBE7704770B578
:103520000446006801694FF00005C943890715D4B6
:10353000C168C943890711D4E91E016101202077C0
:10354000206880698007204602D0FFF7E7FF04E08B
:1035500000F098F8204600F096F825772068016979
:10356000C943490717D4C168C943490713D46FF049
:1035700004010161022020772068806910F4407FF7
:10358000204602D0FFF7CAFF04E000F07BF8204697
:1035900000F079F8257720680169C943090716D436
:1035A000C168C943090712D46FF008010161042002
:1035B00020772068C0698007204602D0FFF7AEFF61
:1035C00004E000F05FF8204600F05DF82577206801
:1035D0000169C943C90617D4C168C943C90613D4D0
:1035E0006FF010010161082020772068C06910F495
:1035F000407F204602D0FFF791FF04E000F042F840
:10360000204600F040F8257720680169C943C907C2
:1036100008D1C168C943C90704D1891E0161204688
:1036200000F032F820680169C943090609D4C1686D
:10363000C943090605D46FF0800101612046FFF7F8
:1036400076FE20680169C943490609D4C168C943A7
:10365000490605D46FF040010161204600F01EF8D4
:1036600020680169C94389060BD4C168C94389062A
:1036700007D46FF0200101612046BDE87040FFF7DC
:1036800057BE70BD7047704700680349884201D13A
:10369000FEF796BC7047000000100040704770B500
:1036A000040004D094F83900002510B106E0012090
:1036B00070BD84F83850204600F022F8242084F8A9
:1036C00039002068C16821F40051C160204601F032
:1036D00037F92068016921F490410161206841694E
:1036E00021F02A0141612068C16841F40051C160A4
:1036F000E563202084F8390084F83A00002070BD8A
:1037000010B586B0044614216846FCF7B5FD18498B
:103710002068884229D117480021026842F010022F
:103720000260006800F0100005901248143802682A
:1037300042F001020260006800F0010005904FF4C1
:10374000C06000900220CDE9010103200390072012
:10375000049069460848FEF727F800221146252004
:10376000FEF798FE2520FEF787FE06B010BD00008C
:103770000010014044380240000002402DE9F843A7
:10378000044690F839001F4616460D46202850D1B1
:10379000B5B1AEB194F8380001284AD0012084F8C0
:1037A00038004FF00008C4F83C80212084F839002C
:1037B000FEF7EAF8A6848146E68484F8388026E09D
:1037C0000120BDE8F883E08C401EE084A0684B46F1
:1037D000B0F5805F4FF000024FF080012046009767
:1037E00003D001F041F9E8B90DE001F03DF9C8B9A5
:1037F00028882168C0F308004860206908B16D1C62
:1038000005E0AD1C03E0216815F8010B4860E08C71
:103810000028D8D14B46002240212046009701F0D5
:1038200023F908B10320CCE7202084F839000020D8
:10383000C7E70220C5E7FEE701684A69D24352059F
:103840000FD46FF480624A61002140F8301F2022BB
:1038500042738173026942F0040202610173012024
:1038600070470020704700002DE9F84F04460068BB
:1038700089460B9D01689846174641F480610160B6
:103880002068016841F48071016000954FF0011BD0
:103890000022594620460A9B00F0DEF84FF4007AD9
:1038A00040B120680068C00501D5C4F840A00320DD
:1038B000BDE8F88F216809F0FE0008612B46284911
:1038C00020460A9A00F0FCF8F0BB20684169806944
:1038D00000902A4620460A9900F070F940B1206C09
:1038E00004283AD12068016841F40071016034E095
:1038F000FEB2B8F1010F09D02168380A08612A46E2
:1039000020460A9900F05AF90028E8D1206806619B
:103910002A4620460A9900F051F90028DFD1206894
:10392000016841F4807101600095002259462046EB
:103930000A9B00F091F80028B3D1216809F0FF003C
:1039400040F00100086100E007E02B4604492046F2
:103950000A9A00F0B5F80028AAD00120A8E70000D4
:10396000020001002DE9F843044600680D46DDE938
:10397000089701689846164641F4807101604B46ED
:1039800000224FF001112046009700F065F848B181
:1039900020680068C00502D54FF400702064032041
:1039A000BDE8F883216805F0FE0008613B464A4601
:1039B0001549204600F084F888B92068416980697B
:1039C00000903A464946204600F0F8F848B1206C8D
:1039D000042804D12068016841F4007101600120CD
:1039E000DEE7F5B2B8F1010F09D02168300A0861AD
:1039F0003A464946204600F0E1F80028E7D1206821
:103A000005610020CCE700000200010070B51646F9
:103A10000D4604460DE02046FFF70EFF08B10120D9
:103A200070BD681C05D0FDF7AFFF801BA84207D80A
:103A300035B120684069C0434007ECD4002070BD18
:103A4000002044F8300F20216173A073216941F0F8
:103A5000200121612073E2E72DE9F0471E469046E0
:103A60000D460446C1F30747DDF8209008E0701CBE
:103A700006D0FDF789FFA0EB0900B0420FD876B160
:103A80002068012F18D0806925EA00000004000C8E
:103A900014D000214145EAD00020BDE8F087002085
:103AA00044F8300F20216173A073216941F0200197
:103AB000216120730120F0E74069E5E70121E9E792
:103AC0002DE9F0479A4691460E46044600254FF0F0
:103AD0002008C1F3074725E020684069C04340053E
:103AE00014D42068016841F40071016021686FF40A
:103AF00080604861256384F83D8084F83E50206CE6
:103B000040F00400206484F83C501FE0B9F1FF3F0E
:103B100008D0FDF739FFA0EB0A0149450CD8B9F1EF
:103B2000000F09D02068012F13D0806926EA000019
:103B30000004000C0BD0CFE744F8305F84F80D8010
:103B4000A573206940F02000206125730120BDE8A5
:103B5000F0874069EAE72DE9F041002590460E46DE
:103B60000446202717E04069C043C0060CD454F82F
:103B7000301B6FF01000486144F810596777A57743
:103B8000206A2062257717E0FDF7FEFEA0EB080013
:103B9000B04208D83EB120684169C9434906E2D421
:103BA0000020BDE8F08144F8305F6773A573206999
:103BB00040F02000206125730120F2E770B5164621
:103BC0000D4604460DE02046FFF736FE08B1012001
:103BD00070BD681C05D0FDF7D7FE801BA84207D832
:103BE00035B120684069C0430006ECD4002070BDA8
:103BF000002044F8300F20216173A073216941F047
:103C0000200121612073E2E710B50348FDF702FFB0
:103C1000BDE8104000F002B8A405002010B50E4821
:103C2000FDF711FF002815D10B480C494FF48042D5
:103C300001600B49416000218160C0E903124161CC
:103C40008161C161016200F00DF8BDE810400248D9
:103C5000FDF7FCBE10BD0000A4050020005C004084
:103C6000A086010000B50068284987B088424AD183
:103C700027480021026842F004020260026802F054
:103C800004020592026842F001020260006800F03E
:103C9000010005904FF4807000901220CDE90101E1
:103CA000022003900420049069461A48FDF77CFD29
:103CB0004FF40070009069461748FDF775FD1448F1
:103CC0001030016841F400010160006800F4000058
:103CD00005900F481038016841F400010160016847
:103CE00021F40001016000220F214820FEF7D2FBE1
:103CF0004820FEF7C1FB00220F214920FEF7CAFB36
:103D00004920FEF7B9FB07B000BD0000005C004091
:103D1000303802400000024000080240FDF7FEBBC0
:103D2000104800B5026887B0002142F0010202602D
:103D3000006800F0010005904FF400400090012061
:103D4000CDE902010848019069460848FDF72CFDBD
:103D500000220F212820FEF79DFB2820FEF78CFB78
:103D600007B000BD303802400000211000000240C2
:103D7000FFF754BF1FB50A4601460020084C8DF8D6
:103D80000C000123A46803A88DE819000548FDF77D
:103D900021FF08B1FFF738FF9DF80C0004B010BDFB
:103DA00034000020A40500203EB514460A46014612
:103DB000074880680094CDE9013001230548FDF7EC
:103DC00009FF002802D0FFF71FFF01203EBD0000C1
:103DD00034000020A40500201FB51346084C0A46F5
:103DE0008DF80C300146A468012303A88DE8190062
:103DF0000448FDF7EBFF002801D0FFF705FF1FBDCA
:103E000034000020A4050020FDF788BB2DE9F04117
:103E1000244886B00178002940D1234C0125057043
:103E20002068002640F0080020602068022700F08B
:103E30000800059068038DE8E100DFF870806946AE
:103E40004046FDF7B1FC206840F008002060206883
:103E5000694600F008000590A0148DE8E100404696
:103E6000FDF7A2FC206840F0040020602068104CA0
:103E700000F00400059004208DE8E100694620462A
:103E8000FDF792FC002204212046FDF777FD012278
:103E900004212046FDF772FD00F0C6FB06B0BDE828
:103EA000F08100003400002030380240000C024055
:103EB000000802402DE9F843154D0C460746002244
:103EC00004212846FDF75AFDDFF848804FF40056DC
:103ED000002231464046FDF751FD384600F0F2FB26
:103EE0000D4822466946C3680C48FEF7D9FF08B161
:103EF00000F090FB012231464046009CFDF73EFD5C
:103F0000012204212846FDF739FD2046BDE8F8834B
:103F100000080240000C024034000020F805002098
:103F200070B50546012251030948FDF727FD094CEC
:103F3000002204212046FDF721FD284600F0C2FBA7
:103F40002046BDE8704001220421FDF717BD0000A6
:103F5000000C02400008024070B5054600224FF4F4
:103F600000510948FDF70AFD084C002204212046B3
:103F7000FDF704FD284600F0A5FB2046BDE8704093
:103F800001220421FDF7FABC000C024000080240A7
:103F90000148FEF7B4B8000060010020F0B50368E6
:103FA0008C88DD68C5F30B452C442504882404EB7C
:103FB000C2141E5906F470461E5103680F68DE686D
:103FC000C6F30B46761C3E442E431E5104688B8973
:103FD000E568C5F30A052B441D048C2303EBC213CB
:103FE000E65806F47046E65004688F68E668C6F343
:103FF0000A06761C3E442E43E6509423046803EBE5
:10400000C213E55825F00705E55005680C69EC502A
:1040100091F831300C7E1F0226069C24056804EBC3
:10402000C21491F8323055F804C04FF0000C45F836
:1040300004C091F8305046EA03433D431D430368F2
:104040001D519823046803EBC213E55825F0FF05C2
:10405000E55005684C69EC50A023046803EBC213DB
:10406000E55840F20776B543E550D1E907452C43C2
:104070000568EC50AC23046803EBC213E55844F820
:1040800003C005684C6AEC500B698BB3012B32D02E
:10409000042B32D0022B30D0032B2ED0072B2CD068
:1040A0000123B024056804EBC2142E5906F0E02663
:1040B0002E51D1E90065AD1B0E8D5D435E43ED1CB5
:1040C00045EA064305682B51B423046803EBC21389
:1040D000E5586FF30A05E5500468C96AE1500068C5
:1040E000842101EBC211425842F001024250F0BD5E
:1040F000FFE70423D5E70323D3E70223D1E700003A
:1041000000B587B01C216846FCF7B6F81348124981
:1041100000F1080C016001214160002104221023FC
:104120008CE80E00402343614FF4C073C0E90631B0
:104130005302C0E90831D1028162022007218DE8D3
:10414000070003910321CDE9041006906946034856
:10415000FEF7B4FD07B000BD400100A0E002002062
:104160002DE9F04F87B014216846FCF785F86048C8
:104170000024016841F004010160016801F00401BC
:104180000591016841F020010160016801F0200102
:104190000591016841F080010160016801F0800132
:1041A0000591016841F001010160016801F0010120
:1041B0000591016841F002010160016801F002010E
:1041C0000591016841F040010160016801F0400182
:1041D0000591016841F010010160016801F01001D2
:1041E0000591016841F0080101600068DFF8049161
:1041F00000F008000590002216214846FDF7BEFB9E
:10420000DFF8F4A0002280215046FDF7B7FBDFF86D
:10421000ECB04FF44057002239465846FDF7AEFB4C
:104220004FF4C048002241463548FDF7A7FB162051
:1042300000900125CDE90154694648460394FDF7F5
:10424000B3FA304E48F20700CDE900066946029401
:104250005046FDF7A9FA80200090CDE90154694647
:1042600050460394FDF7A0FA2020CDE900066946E8
:1042700002944846FDF798FA0420CDE90004224E46
:10428000694630460294FDF78FFA4FF45040009093
:104290000220CDE90104032003900C20049069461C
:1042A0003046FDF781FA6803CDE9000469463046DF
:1042B0000294FDF779FAE802CDE900046946584610
:1042C0000294FDF771FA0097CDE90154694658460A
:1042D0000394FDF769FACDF80080CDE901546946F1
:1042E00007480394FDF760FA07B0BDE8F08F0000BF
:1042F000303802400008024000000240000C02403A
:104300000018024000001110000402400E4810B5D1
:104310000C4901600D49416000214FF480428160E9
:10432000C0E9031241618161C1610162FDF78EFB49
:1043300010210548FDF72EFBBDE810400021024882
:10434000FDF749BB005C00400C010020A086010085
:1043500010B58EB034216846FBF78EFF2348224902
:104360000024C0E9001484600921C460C0E904414C
:10437000012181611D21C1610321016240F20D1102
:10438000416240F24311816240F21711C16240F272
:104390004711016380F8344080F8354080F836409A
:1043A000FDF712FFF020CDE900404FF4A07102228A
:1043B0000294CDE90312FF22CDE905244FF4806277
:1043C00007920522CDE90824CDE90A018DF8304095
:1043D0008DF831408DF83240002269460348FDF7E0
:1043E0004BFE0EB010BD00000068014060010020CF
:1043F0000C480B494FF4007201604FF48271416028
:1044000000218160C1600161C0E905121822C0E984
:104410000721416281620A21C162FEF7B5BC00003A
:10442000005001400802002010B586B00024114859
:10443000009401940294039404940D490594C0E9F6
:1044400000148460C460046144618461FEF7BAFFB3
:104450004FF48050009069460648FEF7F4FF04943C
:1044600004A904480594FEF765FF06B010BD0000DE
:10447000000001406002002010B5114C0F480C21D3
:1044800020604FF4E13060600020A060E060C4E98B
:104490000401A061E0612046FFF701F92068C168CE
:1044A00041F02001C160002211462520FDF7F2FFF6
:1044B000BDE810402520FDF7DFBF000000100140DF
:1044C000A0020020FEE770477047F8B50446406838
:1044D0004FF48273984221D1A0684FF48065B0F503
:1044E000004F01D0A8420AD12068066826F0400695
:1044F00006606068984211D1A068A8420ED0009270
:104500000B4600228021204600F03AF8002804D013
:10451000606D40F0200060650320F8BD00920B46FE
:1045200000220121EFE7000038B504461248134B82
:104530000068B0FBF3F04FF47A7358430090606862
:10454000B0F5827F0DD10B460092002280212046DB
:1045500000F016F870B1606D40F020006065032037
:1045600038BD009830B1401E009020688068C0437C
:104570000006F6D5002038BD1400002000366E017C
:104580002DE9F0411D4617460E460446DDF8188019
:1045900008E0681C06D0FDF7F7F9A0EB0800A84278
:1045A0000BD255B12068806836EA000030D0002078
:1045B000B842EED10020BDE8F0812068416821F0CA
:1045C000E00141606068B0F5827F0BD1A068B0F572
:1045D000004F02D0B0F5806F04D12068016821F04F
:1045E00040010160A06AB0F5005F09D12068016850
:1045F00021F4005101602068016841F4005101601C
:10460000012084F85100002084F850000320D2E7F4
:104610000120CDE710B50348FEF79CFBBDE8104034
:1046200000F002B8F805002000B587B02148FEF779
:10463000A8FB00283BD11F481F4901601821C16118
:1046400000218160416107220161C0E90A12C16055
:104650004FF400720162826141624FF482714160E5
:104660001648016841F480110160006800F4801070
:10467000059012481438016841F02001016000687B
:10468000694600F0200005904FF460700090022011
:104690000190029001200390052004900848FDF746
:1046A00083F807B003485DF804EBFEF76DBB07B075
:1046B00000BD0000F80500200050014044380240D1
:1046C0000014024001B5064801226946C368054846
:1046D000FEF78EFC002801D0FFF79CFF08BD00000C
:1046E00034000020F80500207047000070B59EB02F
:1046F00030216846FBF7C0FD142118A8FBF7BCFD6C
:1047000030210CA8FBF7B8FD1E480025016841F0D8
:1047100080510160006800F080501D901A480168C7
:1047200041F4404101600068022400F440401D90C3
:1047300001200090000401908001CDE90640082688
:1047400008964FF4A870CDE9090405200B9068463F
:10475000FEF706F918A90F2081E831004FF4A050A8
:104760001B90E0021C90052118A8FDF7EFFFC02068
:10477000159510900C9612940CA8FDF7BDFE1EB076
:1047800070BD0000403802400070004005480168DC
:1047900041F47001016003494FF000608039086006
:1047A0007047000088ED00E00148FEF7B8BE000049
:1047B00014030020F0B50268254C264D264E274FE5
:1047C000274B4FF0804CA04209D0604507D0A8424B
:1047D00005D0B04203D0B84201D0984204D122F0B3
:1047E000700E4A6842EA0E02A0421BD0604519D002
:1047F000A84217D0B04215D0B84213D0984211D079
:10480000184DA8420ED0184DA8420BD0174DA84203
:1048100008D0174DA84205D0164DA84202D0164D1B
:10482000A84203D122F44075CA682A434D6922F098
:1048300080022A4302608A68C2620A688262A042D9
:1048400001D0984201D10969016301214161F0BDA4
:10485000000001400004004000080040000C00403F
:104860000004014000400140004401400048014074
:1048700000180040001C00400020004010B5846873
:1048800042EA032224F47F440A432243826010BD9B
:10489000826822F070020A4342F00701816070478B
:1048A00010B5036A046A24F001040462846924F0E8
:1048B000F00444EA021423F00A020A43846102620B
:1048C00010BD10B5036A23F0100303628369046A04
:1048D00023F4704343EA023224F0A00343EA0111B7
:1048E0008261016210BD00002DE9FC4F00258A465F
:1048F00083464FF001084FF03C091E27C5EB051019
:10490000002407EB800600BFC4EB041007EB800215
:10491000CDF80090334651465846CDF8049000F04B
:104920007AFB10B14046BDE8FC8F641C08F1010819
:10493000032CE9DB6D1C032DE0DB4FF0FF30F2E7C9
:104940002DE9F041044600680169E26821F4405114
:10495000114301612169A068E2690843616911435B
:1049600008432168CA6849F20C639A430243CA604B
:1049700020684169A26921F4407111434161E069F5
:10498000192764253226B0F5004F354A354920688D
:104990004FF0000806D0884201D0904236D1FDF792
:1049A0009FFF35E0884201D0904202D1FDF798FF89
:1049B00001E0FDF785FF61684A18A0FB070148EB9D
:1049C0000803FBF70FFC0146B0FBF5F00201B1FB59
:1049D000F5F06FF01803584301EB800006EBC000C0
:1049E000B0FBF5F000F0F80002EB4002B1FBF5F08F
:1049F000584301EB800006EBC000B0FBF5F000F07F
:104A00000700216810448860BDE8F081FDF758FF79
:104A100061688B0F8A00A0FB0701FBF7E3FB0146EF
:104A2000B0FBF5F06FF01802504301EB800006EB8D
:104A30000010B0FBF5F000F0F002B1FBF5F002EB76
:104A40000012B1FBF5F06FF01803584301EB800042
:104A500006EB0010B0FBF5F000F00F00D1E700000E
:104A600000140140001001402DE9F041984617461E
:104A70000E460446069D1DE0681C1BD02DB1FCF7B8
:104A800083FFA0EB0800A84214D92068C16821F474
:104A9000D071C1602068416921F00101416120208D
:104AA00084F8390084F83A00002084F838000320A4
:104AB000BDE8F0812068006836EA000004D00020DC
:104AC000B842D9D00020F3E70120F9E70648406852
:104AD000C1B20D2904D00A2902D004A000F00CB8FC
:104AE00003A000F009B80000001001402563000099
:104AF0000D0A0000FEE700000FB4054B10B503A936
:104B0000044A029800F03CF810BC5DF814FB000069
:104B1000454D0008C80000200FB4084B10B504A98B
:104B200002AA039800F02CF8044602A9002000F025
:104B300003F9204610BC5DF814FB0000394D000855
:104B40000907090E002804DB00F1E02080F80014BA
:104B5000704700F00F0000F1E02080F8141D70474E
:104B600002E008C8121F08C1002AFAD17047704736
:104B7000002001E001C1121F002AFBD17047000094
:104B80002DE9FF4F8BB09A460F460546002606E0FA
:104B900025280BD052460D9990476D1C761C28781D
:104BA0000028F5D10FB03046BDE8F08F0024A046B4
:104BB0000122604900E0044315F8013F203B02FA5E
:104BC00003F00842F7D128782E2817D115F8010FE5
:104BD00044F004042A280ED06FF02F022878A0F1A8
:104BE000300109290AD808EB880102EB410100EBEA
:104BF00001086D1CF2E757F8048B6D1C28786928B2
:104C00003ED006DC0028CDD063280BD0642804D128
:104C100036E0732810D075284BD052460D99904736
:104C2000761C85E017F8040B8DF8000000208DF845
:104C30000100E946012003E057F8049B4FF0FF30E4
:104C400061074FF0000401D40AE0641C44450DDA0A
:104C50008442FADB19F804100029F6D106E0641C3E
:104C60008442FCDB19F804100029F8D1264404E042
:104C700019F8010B52460D999047641EF8D257E07F
:104C800001CF4FF00A0B002802DA40422D2102E04A
:104C9000210504D52B218DF82410012103E0E10723
:104CA00005D02021F7E70DF1200908910CE0002143
:104CB000F9E701CF4FF00A0BF9E75946FBF7E7FA9E
:104CC00001F1300209F8012D0028F6D1ADEB090001
:104CD00000F1200B600701D44FF00108D84502DD38
:104CE000A8EB0B0000E000208046002406E009A8A5
:104CF0005246005D0D999047641C761C08988442CA
:104D0000F5DB04E0302052460D999047761CB8F14F
:104D10000001A8F10108F5DC05E019F8010B524685
:104D20000D999047761CBBF10001ABF1010BF4DC4F
:104D30006D1C34E7092801000A68531C0B601070D1
:104D40007047000013B54FF6FF7301226946024811
:104D5000FEF714FD00981CBDA00200202820FFF7DC
:104D6000FBB82920FFF7F8B84FF4A0707047F02087
:104D7000704710B5FFF74AF8CA20FFF7EDF8C320D7
:104D8000FFF7CEF80820FFF7CBF85020FFF7C8F860
:104D9000CF20FFF7E1F80020FFF7C2F8C120FFF7AE
:104DA000BFF83020FFF7BCF8ED20FFF7D5F86420FE
:104DB000FFF7B6F80320FFF7B3F81220FFF7B0F8BB
:104DC0008120FFF7ADF8E820FFF7C6F88520FFF750
:104DD000A7F80020FFF7A4F87820FFF7A1F8CB2070
:104DE000FFF7BAF83920FFF79BF82C20FFF798F867
:104DF0000020FFF795F83420FFF792F80220FFF724
:104E00008FF8F720FFF7A8F82020FFF789F8EA20AD
:104E1000FFF7A2F80020FFF783F80020FFF780F8E3
:104E2000B120FFF799F80020FFF77AF81B20FFF771
:104E300077F8B620FFF790F80A20FFF771F8A22064
:104E4000FFF76EF8C020FFF787F81020FFF768F82B
:104E5000C120FFF781F81020FFF762F8C520FFF7A7
:104E60007BF84520FFF75CF81520FFF759F8C720BD
:104E7000FFF772F89020FFF753F83620FFF76CF831
:104E8000C820FFF74DF8F220FFF766F80020FFF783
:104E900047F8B020FFF760F8C220FFF741F8B620CE
:104EA000FFF75AF80A20FFF73BF8A720FFF738F87A
:104EB0002720FFF735F80420FFF732F82A20FFF704
:104EC0004BF80020FFF72CF80020FFF729F800200E
:104ED000FFF726F8EF20FFF723F82B20FFF73CF829
:104EE0000020FFF71DF80020FFF71AF80120FFF758
:104EF00017F83F20FFF714F8F620FFF72DF80120F0
:104F0000FFF70EF80020FFF70BF80620FFF708F870
:104F10002C20FFF721F8C820FEF776FF2620FFF7A8
:104F20001BF80120FEF7FCFFE020FFF715F80F202B
:104F3000FEF7F6FF2920FEF7F3FF2420FEF7F0FF2F
:104F40000C20FEF7EDFF0E20FEF7EAFF0920FEF72A
:104F5000E7FF4E20FEF7E4FF7820FEF7E1FF3C205C
:104F6000FEF7DEFF0920FEF7DBFF1320FEF7D8FF78
:104F70000520FEF7D5FF1720FEF7D2FF1120FEF720
:104F8000CFFF0020FEF7CCFFE120FEF7E5FF002079
:104F9000FEF7C6FF1620FEF7C3FF1B20FEF7C0FF7B
:104FA0000420FEF7BDFF1120FEF7BAFF0720FEF731
:104FB000B7FF3120FEF7B4FF3320FEF7B1FF4220E8
:104FC000FEF7AEFF0520FEF7ABFF0C20FEF7A8FFB3
:104FD0000A20FEF7A5FF2820FEF7A2FF2F20FEF7EC
:104FE0009FFF0F20FEF79CFF1120FEF7B5FFC820A2
:104FF000FEF70AFF2920FEF7AFFFBDE810402C2086
:10500000FEF7AABF10B5FEF701FF0321D320FEF77C
:1050100051FF80B210BD30B59042DDE9035409DD87
:10502000994207DD2A44824204DB1819884201DBD9
:10503000012030BD002030BD9CB0FCF7C9FFFFF758
:1050400055FBFFF78DF88A4888490222016000214C
:10505000C0E90112C160C0E90A1201634163FCF7B3
:10506000D2F801218248FBF7EDFFFFF749F8FFF77F
:105070004DF9FFF76DF9FFF7BBF9FFF7D5F9FFF72A
:10508000FBF97CA0FFF738FDFBF78EFA4FF0504498
:1050900021460020FBF7D2FA21460120FBF7CEFA89
:1050A0000120FBF7A1FBFBF771F97C4D2846FBF7CC
:1050B00035F97B4C2046FBF7ABFB7A48FBF79AFBB4
:1050C0002046FBF7A5FBFBF769FA84B2FBF760FA11
:1050D00080B22146FBF732FD01280CD1FBF74AFADA
:1050E000C088032300EB400101EBC00081B26EA237
:1050F0000020FBF755F94FF07F40FBF789FB4FF09D
:10510000FF30FBF70BF91E2382224A213820FBF7E0
:10511000E9F903236BA255214720FBF741F91E2330
:10512000822280213820FBF7DDF9032368A28C213D
:105130004720FBF735F91E238222BC213820FBF7DC
:10514000D1F9032364A2C8214720FBF729F91E23C4
:105150008222F0213820FBF7C5F9032360A2FA214F
:105160004720FBF71DF9604C3220FCF7D7F95E4869
:10517000FBF78CFC20880028F6D06188A08839399C
:105180008129F1D25528EFDD6828EDDA2846FBF7B2
:10519000C5F8FBF7EFF9C188012354A20020FBF703
:1051A000FFF8B4231E211A460846FBF79BF91E217F
:1051B0000846FBF79FFD002624224E4912A8FBF764
:1051C00042F83220FCF7AAF94748FBF75FFC208839
:1051D0000028F6D0B4F80280A78840463946FFF789
:1051E00083FB0546401CECD0294601A8FBF716FFBF
:1051F000DDE9012312A92846FBF7BDFC0028E0D019
:10520000019812A900EB400001EB8000029940F8E0
:10521000216028462EB3FBF7E7FD00262A4636A17B
:1052200004A8FFF779FCFBF7A5F9C0880123C0EBC0
:10523000001081B204AA1420FBF7B2F83B464246A4
:1052400030A104A8FFF768FCFBF794F9C0884FF67B
:10525000FF7101EA0011012304AA1420FBF7A0F852
:10526000AFE7FBF7F9FD0126D8E7000000B00240E8
:10527000CC0000200A0D4C61626F7261746F722D58
:1052800050726F69656374204D4943524F434F4ECE
:1052900054524F4C4552450A0D000000F31200FFD6
:1052A0000000FFFF2800002045726F6172652069D1
:1052B0006E697469616C697A61726520746F756377
:1052C000682100005374617274204A6F630000000B
:1052D0004D616368696E650043726564697473004B
:1052E00045786974000000005C0000205820736954
:1052F00020300000F0D102084170617361743A20DF
:1053000025640000583A2025642C20593A20256451
:10531000000000000A46C0B20B21FEF75DBD10B5CB
:105320000446C0B20921FEF725FD20F00102E0B2DB
:10533000BDE810400921FEF74FBD70B50D4604468B
:10534000C0B20A21FEF716FD20EA0502E0B2BDE870
:1053500070400A21FEF740BD10B50446C0B20921D5
:10536000FEF708FD40F00102E0B2BDE8104009215F
:10537000FEF732BD70B50D460446C0B20A21FEF7F5
:10538000F9FC40EA0502E0B2BDE870400A21FEF7F0
:1053900023BD00000146054A0020135C8B4204D067
:1053A000401CC0B20228F8D3FF207047C400002080
:1053B00070B50D460446C0B21721FEF7DBFC20EAAB
:1053C0000502E0B2BDE870401721FEF705BD000000
:1053D00010B50446FFF7DEFFFF280DD10020FFF7D0
:1053E000D9FF022808D205490C54FEF7C1FC20461B
:1053F000BDE8104000F014B810BD0000C40000204B
:1054000070B50446FEF7B4FCE0B20121FEF7B2FC31
:105410000546E0B20021FEF7ADFC45EA002070BD74
:1054200010B50446C0B202220321FEF7D5FC0A20C3
:10543000FEF774FCE0B200220321FEF7CDFCBDE8CC
:1054400010400220FEF76ABC1F21FFF763BF70B552
:1054500004460025C0B24021FEF78CFCC009E0B232
:1054600005D04C21FEF786FC50B1012508E0012251
:105470004B21FEF7B1FCE0B200224B21FEF7ACFC61
:10548000284670BD10B50446FFF749FF2046BDE829
:1054900010401F21FFF751BF10B50446FEF740FC36
:1054A0001F212046FFF766FF2046BDE81040FFF7AA
:1054B00053BFF8B515460E460446C0B204236A46EB
:1054C000D721FEF771FC0098012203BA9DF8030072
:1054D0004B210343180D3080C3F30B202880E0B22A
:1054E000FEF77AFCE0B200224B21FEF775FCF8BD16
:1054F00010B5C0B20B21FEF73DFC00F01F0010BD3F
:1055000070B50446C0B20421FEF734FC20F0040557
:10551000E0B22A460421FEF75FFCF0212046FFF7A7
:1055200047FF25F00302E0B20421FEF755FCE0B28C
:1055300049222021FEF750FC0220FEF7EFFBE0B2EB
:1055400001222121FEF748FCE0B29A224121FEF718
:1055500043FCE0B201224A21FEF73EFCE0B2012208
:105560004B21FEF739FCE0B200224B21FEF734FC60
:10557000E0B201225621FEF72FFCE0B201225821B1
:10558000FEF72AFCE0B201224021FEF725FCE0B242
:10559000FF220B21FEF720FCBDE870400220FEF741
:1055A000BDBB0000FFFFFFFFFFFFFFFFFFFFFFFF8F
:1055B000FFFFFFFFFFFFFFFFFFFFFFFFFFFFFFFFFB
:1055C000FFFFFFFFFFFFFFFFFFFFFFFFFFFFFFFFEB
:1055D000FFFFFFFFFFFFFFFFFFFFFFFFFFFFFFFFDB
:1055E000FFFFFFFFFFFFFFFFFFFFFFFFFFFFFFFFCB
:105E5000FFFFFFFFFFFFFFFFFFFFFFFFF31200FF4A
:105E6000F31200FFF31200FFF31200FFF31200FF22
:105E7000F31200FFF31200FFF31200FFF31200FF12
:105E8000F31200FFF31200FFF31200FFF31200FF02
:105E9000F31200FFF31200FFF31200FFF31200FFF2
:105EA000F31200FFF31200FFF31200FFF31200FFE2
:105EB000F31200FFF31200FFF31200FFF31200FFD2
:105EC000F31200FFF31200FFF31200FFF31200FFC2
:105ED000F31200FFF31200FFF31200FFF31200FFB2
:105EE000F31200FFF31200FFF31200FFF31200FFA2
:105EF000F31200FFF31200FFF31200FFF31200FF92
:105F0000F31200FFF31200FFF31200FFF31200FF81
:105F1000F31200FFF31200FFF31200FFF31200FF71
:105F2000F31200FFF31200FFF31200FFF31200FF61
:105F3000F31200FFF31200FFF31200FFF31200FF51
:105F4000F31200FFFFFFFFFFFFFFFFFFFFFFFFFF59
:105F5000F31200FFF31200FFF31200FFF31200FF31
:105F6000F31200FFF31200FFF31200FFF31200FF21
:105F7000F31200FFF31200FFF31200FFF31200FF11
:105F8000F31200FFF31200FFF31200FFF31200FF01
:105F9000F31200FFF31200FFF31200FFF31200FFF1
:105FA000F31200FFF31200FFF31200FFF31200FFE1
:105FB000F31200FFF31200FFF31200FFF31200FFD1
:105FC000F31200FFF31200FFF31200FFF31200FFC1
:105FD000F31200FFF31200FFF31200FFF31200FFB1
:105FE000F31200FFF31200FFF31200FFF31200FFA1
:105FF000F31200FFF31200FFF31200FFF31200FF91
:10600000F31200FFF31200FFF31200FFF31200FF80
:10601000F31200FFF31200FFF31200FFF31200FF70
:10602000F31200FFF31200FFF31200FFF31200FF60
:10603000F31200FFFFFFFFFFFFFFFFFFFFFFFFFF68
:10604000F31200FFF31200FFF31200FFF31200FF40
:10605000F31200FFF31200FFF31200FFF31200FF30
:10606000F31200FFF31200FFF31200FFF31200FF20
:10607000F31200FFF31200FFF31200FFF31200FF10
:10608000F31200FFF31200FFF31200FFF31200FF00
:10609000F31200FFF31200FFF31200FFF31200FFF0
:1060A000F31200FFF31200FFF31200FFF31200FFE0
:1060B000F31200FFF31200FFF31200FFF31200FFD0
:1060C000F31200FFF31200FFF31200FFF31200FFC0
:1060D000F31200FFF31200FFF31200FFF31200FFB0
:1060E000F31200FFF31200FFF31200FFF31200FFA0
:1060F000F31200FFF31200FFF31200FFF31200FF90
:10610000F31200FFF31200FFF31200FFF31200FF7F
:10611000F31200FFF31200FFF31200FFF31200FF6F
:10612000F31200FFF31200FFFFFFFFFFFFFFFFFF6F
:10613000FFFFFFFFFFFFFFFFFFFFFFFFFFFFFFFF6F
:10614000F31200FFF31200FFF31200FFF31200FF3F
:10615000F31200FFF31200FFF31200FFF31200FF2F
:10616000F31200FFF31200FFF31200FFF31200FF1F
:10617000F31200FFF31200FFF31200FFF31200FF0F
:10618000F31200FFF31200FFF31200FFF31200FFFF
:10619000F31200FFF31200FFF31200FFF31200FFEF
:1061A000F31200FFF31200FFF31200FFF31200FFDF
:1061B000F31200FFF31200FFF31200FFF31200FFCF
:1061C000F31200FFF31200FFF31200FFF31200FFBF
:1061D000F31200FFF31200FFF31200FFF31200FFAF
:1061E000F31200FFF31200FFF31200FFF31200FF9F
:1061F000F31200FFF31200FFF31200FFF31200FF8F
:10620000F31200FFF31200FFF31200FFF31200FF7E
:10621000F31200FFF31200FFF31200FFF31200FF6E
:10622000F31200FFF31200FFFFFFFFFFFFFFFFFF6E
:10623000FFFFFFFFF31200FFF31200FFF31200FF56
:10624000F31200FFF31200FFF31200FFF31200FF3E
:10625000F31200FFF31200FFF31200FFF31200FF2E
:10626000F31200FFF31200FFF31200FFF31200FF1E
:10627000F31200FFF31200FFF31200FFF31200FF0E
:10628000F31200FFF31200FFF31200FFF31200FFFE
:10629000F31200FFF31200FFF31200FFF31200FFEE
:1062A000F31200FFF31200FFF31200FFF31200FFDE
:1062B000F31200FFF31200FFF31200FFF31200FFCE
:1062C000F31200FFF31200FFF31200FFF31200FFBE
:1062D000F31200FFF31200FFF31200FFF31200FFAE
:1062E000F31200FFF31200FFF31200FFF31200FF9E
:1062F000F31200FFF31200FFF31200FFF31200FF8E
:10630000F31200FFF31200FFF31200FFF31200FF7D
:10631000F31200FFF31200FFFFFFFFFFFFFFFFFF7D
:10632000FFFFFFFFF31200FFF31200FFF31200FF65
:10633000F31200FFF31200FFF31200FFF31200FF4D
